:020000040000fa
:10000000f03f0020190b00004b0d00006d0d0000ab
:1000100000000000000000000000000000000000e0
:10002000000000000000000000000000ff0c0000c5
:100030000000000000000000ff0c0000ff0c0000aa
:10004000ff0c0000ff0c0000ff0c0000ff0c000084
:10005000ff0c0000ff0c0000ff0c0000ff0c000074
:10006000ff0c0000ff0c0000ff0c0000ff0c000064
:10007000ff0c0000ff0c0000ff0c0000ff0c000054
:10008000ff0c0000ff0c0000ff0c0000ff0c000044
:10009000ff0c0000ff0c000015010000150100001e
:1000a0001501000015010000ff0c0000ff0c00000e
:1000b000ff0c0000ff0c0000ff0c0000ff0c000014
:1000c000ff0c0000ff0c0000ff0c0000ff0c000004
:1000d000ff0c0000ff0c0000ff0c0000ff0c0000f4
:1000e000ff0c0000ff0c0000ff0c0000ff0c0000e4
:0400f000ff0c000001
:020000040000fa
:1000f400f8b5c046f8bc08bc9e467047e50b000046
:10010400f8b5c046f8bc08bc9e467047c10b000059
:020000040000fa
:1001140010b540f20043c4f200239b7d002b00d1b4
:1001240092e040f20043c4f20023596807220a40d7
:100134001b7e5b0700d49fe040f20043c4f200231f
:10014400986a40f2ec03c2f200035969db689942f1
:1001540000d391e0002a00d077e040f2ec03c2f231
:1001640000035a6850540131596140f20043c4f20b
:1001740000231b7edb072dd540f20043c4f200238d
:1001840001221a7540f2ec03c2f200039a699b68db
:100194009a4200d397e040f2ec03c2f200031968dc
:1001a400885c40f20041c4f20021886201329a6105
:1001b40040f2ec03c2f200039a699b689a4200d1b0
:1001c400a9e040f2ec03c2f200035a69db689a42e8
:1001d40000d1b7e040f20043c4f200231b7e9b072a
:1001e40026d540f26413c2f200031b7863b340f2d5
:1001f400ec03c2f200035a69db689a421ed140f252
:10020400ec03c2f200030021197740f20042c4f269
:1002140000220720107540f26412c2f2000211702d
:100224001a6a8ab140f2ec03c2f20003586a90479a
:1002340040f26413c2f200031b782bb140f2004376
:10024400c4f2002302229a7510bd40f2ec03c2f2fc
:1002540000034a005c6810530131596140f20043c5
:10026400c4f200231b7edb07b4d540f20043c4f282
:10027400002301221a750fe040f20043c4f2002368
:100284001b7edb07a6d540f20043c4f20023012104
:100294001975002a00d175e740f2ec03c2f200039d
:1002a4009a699b689a4222d240f2ec03c2f200039c
:1002b40051001868085a40f20041c4f200218862d3
:1002c40001329a6174e740f2ec03c2f200031b6945
:1002d400002b40d040f20042c4f20022ff21916280
:1002e40040f2ec02c2f20002013b136160e740f20b
:1002f400ec03c2f200031b696bb340f20042c4f288
:1003040000224ff6ff71916240f2ec02c2f2000249
:10031400013b13614ce740f2ec03c2f200031b699a
:10032400002b00d04de740f26413c2f20003012217
:100334001a7040f20043c4f200231b7e9b0700d5d1
:1003440055e77be740f20043c4f2002301229a758b
:1003540003321a753ee740f2ec03c2f200039a69d5
:0a0364009b689a4200d02ce7dde709
:020000040000fa
:10036e0070b50600002978d0002876d040f2ec0057
:10037e00c2f20000007f002800d0c7e040f2004427
:10038e00c4f20024656807242c40012c6cd040f286
:10039e00ec00c2f2000006604260002444618461f9
:1003ae0004613000441ea0414042014040f2ec0086
:1003be00c2f200008160501e824152421a4040f249
:1003ce00ec00c2f20000c2600124047740f200404b
:1003de00c4f20020007e400707d5a402c4f2002418
:1003ee000420a56a257e0542fbd140f20040c4f2ee
:1003fe000020448b04252c434483047e80252c430b
:10040e0004768a4205d940f2ec00c2f20000541a7a
:10041e00046140f20040c4f20020406840073fd122
:10042e0040f2ec02c2f2000292698a4224d2307883
:10043e0040f20041c4f20021886240f2ec01c2f2a7
:10044e00000101328a61002b58d040f20043c4f201
:10045e00002304229a75012059e00020002b56d06b
:10046e00002a83d1002052e009b1cc074fd4002bd3
:10047e008dd0dc078bd54ae040f2ec02c2f20002ce
:10048e001269002adfd040f20041c4f20021ff20a1
:10049e00886240f2ec01c2f20001013a0a61d2e731
:1004ae00490840f2ec00c2f2000081600469640861
:1004be0004615208c260826991420fd9308840f2bd
:1004ce00ff11014040f20040c4f20020816240f270
:1004de00ec01c2f2000101328a61b4e7002cb2d005
:1004ee0040f20042c4f2002240f2ff11916240f24b
:1004fe00ec02c2f20002013c1461a4e740f2004398
:10050e00c4f2002301229a75012000e0002070bd84
:020000040000fa
:10051e0041f20003c4f2000302221a7641f20043b4
:10052e00c4f2000300221a7441f60043c4f2000321
:10053e000632ff32c0f204025a6241f60042c4f2a1
:10054e000002082153681942fcd141f60043c4f25f
:10055e00000380224121995041f60042c4f200026c
:10056e008020013913581942fcd041f20003c4f225
:10057e00000320225a631f321a6341f20002c4f2b2
:10058e0000023c200421135c0b42fcd141f200031b
:10059e00c4f200032c220221995441f20002c4f24b
:1005ae0000023c20135c0b42fcd141f20002c4f26b
:1005be00000240200321135c0b40032bfbd141f6bc
:1005ce000043c4f2000340f20712c0f202021a62a4
:1005de0041f60042c4f20002042153681942fcd1d4
:1005ee0041f60043c4f20003ac224021995041f67b
:1005fe000042c4f20002ac2013581942fcd07047de
:020000040000fa
:10060e0070b504000378dbb31023c356022b37d129
:10061e00066ab269110aff25294052334b4340f254
:10062e000001c2f200018c4663442a409500ad18c9
:10063e00ed00db68ed181c202856431c0fd06a7f96
:10064e00fab91f3202400121914080b2400940f2b6
:10065e00600cc0f2800c6044c00100f07cfb6b6a41
:10066e00b26993421cd0236a2bb11a6a226200220d
:10067e005a751a621a70256a15b16b7d012b29d035
:10068e0070bd1f2202400121914080b2400940f20c
:10069e00600cc0f2800c6044c00100f05efbdee72f
:1006ae0001233375f169236a2bb11a6a2262002283
:1006be005a751a621a706b68002bdcd02626a35d61
:1006ce000133a355aa686b6801209847a35d013bcf
:1006de00a355d0e7280000f066f802236b752b694e
:0e06ee006a68e968a86864696468a047c8e79c
:020000040000fa
:1006fc0030b519b944f60001c0f2e81140f20043dc
:10070c00c4f200231a680224a2431a6040f2004289
:10071c00c4f20022d369002bfcd1002840d002681f
:10072c004b0800249a422ad85200b1fbf2f140f255
:10073c000043c4f200231a681a4c22401a601c6849
:10074c00826845682a4322431a600139ff2900d97f
:10075c00ff21c9b240f20043c4f2002319735a6856
:10076c0007218a435a605a68c1680a435a6040f2aa
:10077c000042c4f20022d369002bfcd1012440f2c8
:10078c000043c4f200231a6802210a431a6040f2a3
:10079c000042c4f20022d369002bfcd1200030bdf2
:0807ac000024ece7ffffffcf82
:020000040000fa
:1007b40070b5050081690b0aff200340542253439e
:1007c40040f20004c2f20004a446634408408400da
:1007d4002418e400db68e41823885a436244926acc
:1007e400914227d020000c3054265e4340f200038f
:1007f400c2f200039c46664473691b680021984753
:10080400ab69b36220230022e2541c202056431c0f
:100814000fd0627f9ab91f3202400121914080b209
:10082400400940f2600cc0f2800c6044c00100f04a
:1008340099fa70bd2022a25c002ae6d0d2e71f22da
:1008440002400121914080b2400940f2600cc0f2a4
:0c085400800c6044c00100f083faeae769
:020000040000fa
:1008600070b500283cd140f20003c2f200031b78af
:10087000002b38d140f20004c2f2000401225033b0
:10088000e2540133e2540133e25422700d68656191
:10089000cb69a3618b69e361002323624868e06050
:1008a0008868a0606360a284023aa2622732a354df
:1008b0006370ca68e2620a6922634a6962630a6a0b
:1008c000e2634422a354a364e36440f20f60c0f2e5
:1008d0000000eb682100984702232374002070bdbc
:0c08e00001204042fbe701204042f8e705
:020000040000fa
:1008ec00400100201c00000000000000000000205f
:1008fc005400000000000000640100200100000012
:10090c0000000000ec0000202c00000000000000a3
:10091c00180100202800000000000000a4000020a6
:10092c0048000000000000005c01002004000000f2
:10093c0000000000540000205000000000000000e7
:10094c006001002004000000000000000000000016
:10095c00000000004444444444444444444444445b
:020000040000fa
:10096c0043f20003c4f2000340f2a042c0f284023e
:10097c001a6040f2a042c0f204021a610122442122
:10098c005a5401310320585443394430195401301e
:10099c001a5401301a5405301a5401301a540130cb
:1009ac001a5401301a5405301a5401301954593163
:1009bc005a54323229395a540021995423381a5432
:1009cc0003301a54053215389854033299540232b4
:0409dc009954704773
:020000040000fa
:1009e0000021f0b5174b184a934208d340f20b0c84
:1009f0000027164a1368516823b919b9f0bd197058
:100a00000133f1e7100095680c305c18b5b165460c
:100a1000ed1a5219a3420ad10b00032213405a1ea9
:100a2000934189085918890040180200e2e75d1ccb
:100a3000ae5c1e702b00ede71f700133a342fbd1ab
:100a4000f3e7c0460000002000000020ec08000092
:020000040000fa
:100a5000bff35f8f62b64ef20013cef2000340f296
:100a600014315a5813481040c022120402435a50fd
:100a70008022d2031a605a581202120ac0200006bd
:100a800002435a50802212041a6004315a58ff203f
:100a900082433f3802435a50802252041a605a5807
:100aa000054802404cf2000002435a508022920452
:0c0ab0001a607047ffff00ffff00ffff0f
:020000040000fa
:100abc0000230e4a10b513600d4a0e4c13600e4afb
:100acc0013600e4a13600e4a13600e4a5362136190
:100adc000133936000f046f900f044f90a4b9c4254
:100aec0000d310bd08cc9847f8e7c0466001002041
:100afc0060000020000100005c0000205400002079
:0c0b0c00580000206400002004010000dc
:020000040000fa
:100b180010b540f66f53c0f20003984740f66f5384
:100b2800c0f20003984700f015f940f20003c0f244
:100b380000037f2293434ef60052cef200029360e8
:100b480040f6bd23c0f20003984740f66f53c0f249
:100b58000003984740f66f53c0f20003984700f02f
:040b6800dbf8fee7d1
:020000040000fa
:100b6c0040f2ec03c2f2000300221a621a779a6078
:100b7c00da6040f20043c4f20023882292025a60e9
:100b8c0040f20042c4f20022d369002bfcd140f2a7
:100b9c000043c4f200230f221a73013ac0f201027f
:100bac001a6040f20042c4f20022d369002bfcd13f
:020bbc00704780
:020000040000fa
:020bbe0070477e
:020000040000fa
:100bc00010b5054c227832b9044b13b1044800e04b
:100bd00000bf0123237010bd400100200000000071
:100be00000000000034b10b51bb10349034800e0af
:100bf00000bf10bd00000000440100200000000004
:020000040000fa
:100c000040f20043c4f2000300221a819a790121c4
:100c10000a439a719b7803221340022b0cd040f2b6
:100c20000043c4f20003013a9a705202c4f2000277
:0a0c3000012193790b42fcd07047bc
:020000040000fa
:100c3a0010b544f20003c4f2001304225a60fff70d
:100c4a00dafffff78efefff765fc00f04af8fff7c0
:100c5a00b1fffff786ff40f69c41c0f20001002079
:0a0c6a00fff7f9fdfff7effe10bde4
:020000040000fa
:100c74000000000001000000ffffffffffffffff77
:100c8400ffffffffffffffffffffffffffffffff70
:080c9400ffffffffffffffff60
:020000040000fa
:100c9c00100d00001801002001000000740c000071
:100cac00540d00004c0d000002000000a4000020b8
:040cbc00000d000027
:020000040000fa
:100cc00040f20043c4f20023187e4008012358403c
:060cd000012318407047eb
:020000040000fa
:100cd60000b583b06b46d87107330821180000f0c1
:060ce6002bf803b000bd75
:020000040000fa
:100cec0044f20003c4f2001302225a60013a1a7251
:020cfc0070473f
:020000040000fa
:020cfe00fee70f
:020000040000fa
:100d0000000000001600000017000000180000009e
:020000040000fa
:100d1000fd0600006f030000c10c0000310d000053
:020000040000fa
:100d200010b50020fff789ff2320fff7d4fffee76f
:020000040000fa
:0e0d300040f2ec03c2f20003186259627047f1
:020000040000fa
:0c0d3e0010b500230022fff713fb10bdce
:020000040000fa
:020d4a00fee7c2
:020000040000fa
:080d4c0000000010000000008f
:020000040000fa
:080d5400000000000000002077
:020000040000fa
:080d5c0010b5fff73ffe10bdca
:020000040000fa
:040d640081617047f2
:020000040000fa
:040d6800416170472e
:020000040000fa
:020d6c00fee7a0
:020000040000fa
:020d6e007047cc
:020000040000fa
:020d70007047ca
:020000040000fa
:0200000400807a
:044000007f43ffb14a
:020000040000fa
:0200000400807a
:04400400bbfcffff03
:020000040000fa
:0200000400807a
:04c0040000ffffff3b
:020000040000fa
:0200000400807a
:04c04000ffffffff00
:020000040000fa
:0200000400807a
:04c04400fffffffffc
:020000040000fa
:0200000400807a
:04c04800fffffffff8
:020000040000fa
:0200000400807a
:04c04c00fffffffff4
:00000001FF
